{
  "contractName": "PrePension",
  "abi": [
    {
      "constant": false,
      "inputs": [
        {
          "name": "_newOwner",
          "type": "address"
        }
      ],
      "name": "setOwner",
      "outputs": [],
      "payable": false,
      "stateMutability": "nonpayable",
      "type": "function"
    },
    {
      "constant": true,
      "inputs": [],
      "name": "version",
      "outputs": [
        {
          "name": "",
          "type": "bytes32"
        }
      ],
      "payable": false,
      "stateMutability": "view",
      "type": "function"
    },
    {
      "constant": true,
      "inputs": [],
      "name": "owner",
      "outputs": [
        {
          "name": "",
          "type": "address"
        }
      ],
      "payable": false,
      "stateMutability": "view",
      "type": "function"
    },
    {
      "inputs": [],
      "payable": false,
      "stateMutability": "nonpayable",
      "type": "constructor"
    },
    {
      "payable": false,
      "stateMutability": "nonpayable",
      "type": "fallback"
    },
    {
      "anonymous": false,
      "inputs": [
        {
          "indexed": false,
          "name": "id",
          "type": "bytes32"
        }
      ],
      "name": "participantAdded",
      "type": "event"
    },
    {
      "anonymous": false,
      "inputs": [
        {
          "indexed": false,
          "name": "id",
          "type": "bytes32"
        }
      ],
      "name": "pensionAdded",
      "type": "event"
    },
    {
      "anonymous": false,
      "inputs": [
        {
          "indexed": false,
          "name": "id",
          "type": "bytes32"
        }
      ],
      "name": "supplierAdded",
      "type": "event"
    },
    {
      "anonymous": false,
      "inputs": [
        {
          "indexed": false,
          "name": "pension",
          "type": "bytes32"
        },
        {
          "indexed": false,
          "name": "participant",
          "type": "bytes32"
        },
        {
          "indexed": false,
          "name": "balance",
          "type": "uint256"
        },
        {
          "indexed": false,
          "name": "coins",
          "type": "uint256"
        }
      ],
      "name": "minted",
      "type": "event"
    },
    {
      "anonymous": false,
      "inputs": [
        {
          "indexed": false,
          "name": "_participant",
          "type": "bytes32"
        },
        {
          "indexed": false,
          "name": "_supplier",
          "type": "bytes32"
        },
        {
          "indexed": false,
          "name": "amount",
          "type": "uint256"
        }
      ],
      "name": "purchased",
      "type": "event"
    },
    {
      "constant": false,
      "inputs": [
        {
          "name": "_participant",
          "type": "address"
        },
        {
          "name": "_id",
          "type": "bytes32"
        }
      ],
      "name": "addParticipant",
      "outputs": [],
      "payable": false,
      "stateMutability": "nonpayable",
      "type": "function"
    },
    {
      "constant": true,
      "inputs": [
        {
          "name": "_id",
          "type": "bytes32"
        }
      ],
      "name": "getParticipant",
      "outputs": [
        {
          "name": "id",
          "type": "bytes32"
        },
        {
          "name": "balance",
          "type": "uint256"
        },
        {
          "name": "active",
          "type": "bool"
        }
      ],
      "payable": false,
      "stateMutability": "view",
      "type": "function"
    },
    {
      "constant": false,
      "inputs": [
        {
          "name": "_pension",
          "type": "address"
        },
        {
          "name": "_id",
          "type": "bytes32"
        }
      ],
      "name": "addPension",
      "outputs": [],
      "payable": false,
      "stateMutability": "nonpayable",
      "type": "function"
    },
    {
      "constant": true,
      "inputs": [
        {
          "name": "_id",
          "type": "bytes32"
        }
      ],
      "name": "getPension",
      "outputs": [
        {
          "name": "id",
          "type": "bytes32"
        },
        {
          "name": "active",
          "type": "bool"
        }
      ],
      "payable": false,
      "stateMutability": "view",
      "type": "function"
    },
    {
      "constant": false,
      "inputs": [
        {
          "name": "_supplier",
          "type": "address"
        },
        {
          "name": "_id",
          "type": "bytes32"
        }
      ],
      "name": "addSupplier",
      "outputs": [],
      "payable": false,
      "stateMutability": "nonpayable",
      "type": "function"
    },
    {
      "constant": true,
      "inputs": [
        {
          "name": "_id",
          "type": "bytes32"
        }
      ],
      "name": "getSupplier",
      "outputs": [
        {
          "name": "id",
          "type": "bytes32"
        },
        {
          "name": "noOfInvoices",
          "type": "uint256"
        },
        {
          "name": "active",
          "type": "bool"
        }
      ],
      "payable": false,
      "stateMutability": "view",
      "type": "function"
    },
    {
      "constant": true,
      "inputs": [],
      "name": "getNumberOfSuppliers",
      "outputs": [
        {
          "name": "",
          "type": "uint256"
        }
      ],
      "payable": false,
      "stateMutability": "view",
      "type": "function"
    },
    {
      "constant": true,
      "inputs": [
        {
          "name": "_id",
          "type": "uint256"
        }
      ],
      "name": "getSupplierById",
      "outputs": [
        {
          "name": "id",
          "type": "bytes32"
        },
        {
          "name": "noOfInvoices",
          "type": "uint256"
        },
        {
          "name": "active",
          "type": "bool"
        }
      ],
      "payable": false,
      "stateMutability": "view",
      "type": "function"
    },
    {
      "constant": false,
      "inputs": [
        {
          "name": "_pension",
          "type": "bytes32"
        },
        {
          "name": "_participant",
          "type": "bytes32"
        },
        {
          "name": "_balance",
          "type": "uint256"
        }
      ],
      "name": "mint",
      "outputs": [],
      "payable": false,
      "stateMutability": "nonpayable",
      "type": "function"
    },
    {
      "constant": true,
      "inputs": [
        {
          "name": "_pension",
          "type": "bytes32"
        },
        {
          "name": "_participant",
          "type": "bytes32"
        }
      ],
      "name": "getMintedForParticipant",
      "outputs": [
        {
          "name": "",
          "type": "uint256"
        }
      ],
      "payable": false,
      "stateMutability": "view",
      "type": "function"
    },
    {
      "constant": true,
      "inputs": [
        {
          "name": "_participant",
          "type": "bytes32"
        },
        {
          "name": "_pension",
          "type": "bytes32"
        }
      ],
      "name": "getPensionBalance",
      "outputs": [
        {
          "name": "",
          "type": "uint256"
        }
      ],
      "payable": false,
      "stateMutability": "view",
      "type": "function"
    },
    {
      "constant": true,
      "inputs": [
        {
          "name": "_participant",
          "type": "bytes32"
        }
      ],
      "name": "getParticipantBalance",
      "outputs": [
        {
          "name": "",
          "type": "uint256"
        }
      ],
      "payable": false,
      "stateMutability": "view",
      "type": "function"
    },
    {
      "constant": true,
      "inputs": [
        {
          "name": "_participant",
          "type": "bytes32"
        }
      ],
      "name": "getNumberOfPensions",
      "outputs": [
        {
          "name": "",
          "type": "uint256"
        }
      ],
      "payable": false,
      "stateMutability": "view",
      "type": "function"
    },
    {
      "constant": true,
      "inputs": [
        {
          "name": "_participant",
          "type": "bytes32"
        },
        {
          "name": "id",
          "type": "uint256"
        }
      ],
      "name": "getParticipantPension",
      "outputs": [
        {
          "name": "pension",
          "type": "bytes32"
        },
        {
          "name": "balance",
          "type": "uint256"
        }
      ],
      "payable": false,
      "stateMutability": "view",
      "type": "function"
    },
    {
      "constant": false,
      "inputs": [
        {
          "name": "_participant",
          "type": "bytes32"
        },
        {
          "name": "_supplier",
          "type": "bytes32"
        },
        {
          "name": "_amount",
          "type": "uint256"
        }
      ],
      "name": "purchase",
      "outputs": [],
      "payable": false,
      "stateMutability": "nonpayable",
      "type": "function"
    }
  ],
  "bytecode": "0x6060604052341561000f57600080fd5b336000806101000a81548173ffffffffffffffffffffffffffffffffffffffff021916908373ffffffffffffffffffffffffffffffffffffffff16021790555060206040519081016040528060008152506001600082015181600701559050506121358061007e6000396000f3006060604052600436106100fb576000357c0100000000000000000000000000000000000000000000000000000000900463ffffffff16806298a2b41461010b57806305df549b1461016057806306487d54146101a657806313af4035146101fb578063155b6b131461023457806319fa70a2146102715780632c2f9250146102b9578063305ed78e146102e257806348a00a8c1461032857806354fd4d50146103765780638da5cb5b146103a75780639a482ed3146103fc578063a0c981981461044f578063b466cc1c146104a0578063b6872027146104db578063dc14ddd614610523578063edb8011714610569578063f4e493d6146105a4575b341561010657600080fd5b600080fd5b341561011657600080fd5b6101306004808035600019169060200190919050506105e1565b60405180846000191660001916815260200183815260200182151515158152602001935050505060405180910390f35b341561016b57600080fd5b6101a4600480803573ffffffffffffffffffffffffffffffffffffffff169060200190919080356000191690602001909190505061069c565b005b34156101b157600080fd5b6101cb600480803560001916906020019091905050610789565b60405180846000191660001916815260200183815260200182151515158152602001935050505060405180910390f35b341561020657600080fd5b610232600480803573ffffffffffffffffffffffffffffffffffffffff16906020019091905050610843565b005b341561023f57600080fd5b61026f600480803560001916906020019091908035600019169060200190919080359060200190919050506108e1565b005b341561027c57600080fd5b6102a360048080356000191690602001909190803560001916906020019091905050610aad565b6040518082815260200191505060405180910390f35b34156102c457600080fd5b6102cc610b54565b6040518082815260200191505060405180910390f35b34156102ed57600080fd5b610326600480803573ffffffffffffffffffffffffffffffffffffffff1690602001909190803560001916906020019091905050610b61565b005b341561033357600080fd5b61034d600480803560001916906020019091905050610cae565b604051808360001916600019168152602001821515151581526020019250505060405180910390f35b341561038157600080fd5b610389610d5c565b60405180826000191660001916815260200191505060405180910390f35b34156103b257600080fd5b6103ba610d80565b604051808273ffffffffffffffffffffffffffffffffffffffff1673ffffffffffffffffffffffffffffffffffffffff16815260200191505060405180910390f35b341561040757600080fd5b61042a600480803560001916906020019091908035906020019091905050610da5565b6040518083600019166000191681526020018281526020019250505060405180910390f35b341561045a57600080fd5b6104706004808035906020019091905050610e5b565b60405180846000191660001916815260200183815260200182151515158152602001935050505060405180910390f35b34156104ab57600080fd5b6104c5600480803560001916906020019091905050610e8c565b6040518082815260200191505060405180910390f35b34156104e657600080fd5b61050d60048080356000191690602001909190803560001916906020019091905050610f18565b6040518082815260200191505060405180910390f35b341561052e57600080fd5b610567600480803573ffffffffffffffffffffffffffffffffffffffff1690602001909190803560001916906020019091905050610f32565b005b341561057457600080fd5b61058e60048080356000191690602001909190505061107e565b6040518082815260200191505060405180910390f35b34156105af57600080fd5b6105df6004808035600019169060200190919080356000191690602001909190803590602001909190505061110a565b005b6000806000806001600201600060016003016000886000191660001916815260200190815260200160002060009054906101000a900473ffffffffffffffffffffffffffffffffffffffff1673ffffffffffffffffffffffffffffffffffffffff1673ffffffffffffffffffffffffffffffffffffffff1681526020019081526020016000209050806000015493508381600101549350838260020160009054906101000a900460ff16935083935093509350509193909250565b806001600401600060016005016000846000191660001916815260200190815260200160002060009054906101000a900473ffffffffffffffffffffffffffffffffffffffff1673ffffffffffffffffffffffffffffffffffffffff1673ffffffffffffffffffffffffffffffffffffffff16815260200190815260200160002060010160009054906101000a900460ff161561073857600080fd5b61074460018484611342565b507f1fc33eba80116a8d99274580ad8063ae03365c9e6275f7068d2647271ed9d91e8260405180826000191660001916815260200191505060405180910390a1505050565b60008060008060016000016000600180016000886000191660001916815260200190815260200160002060009054906101000a900473ffffffffffffffffffffffffffffffffffffffff1673ffffffffffffffffffffffffffffffffffffffff1673ffffffffffffffffffffffffffffffffffffffff1681526020019081526020016000209050806000015493508381600101549350838260040160009054906101000a900460ff16935083935093509350509193909250565b6000809054906101000a900473ffffffffffffffffffffffffffffffffffffffff1673ffffffffffffffffffffffffffffffffffffffff163373ffffffffffffffffffffffffffffffffffffffff1614151561089e57600080fd5b806000806101000a81548173ffffffffffffffffffffffffffffffffffffffff021916908373ffffffffffffffffffffffffffffffffffffffff16021790555050565b60006108eb61203a565b846001600401600060016005016000846000191660001916815260200190815260200160002060009054906101000a900473ffffffffffffffffffffffffffffffffffffffff1673ffffffffffffffffffffffffffffffffffffffff1673ffffffffffffffffffffffffffffffffffffffff16815260200190815260200160002060010160009054906101000a900460ff16151561098857600080fd5b8460016000016000600180016000846000191660001916815260200190815260200160002060009054906101000a900473ffffffffffffffffffffffffffffffffffffffff1673ffffffffffffffffffffffffffffffffffffffff1673ffffffffffffffffffffffffffffffffffffffff16815260200190815260200160002060040160009054906101000a900460ff161515610a2457600080fd5b610a3160018888886114b8565b9350610a3f600187896116cf565b92507f777e2020e5c26dee5f4e41c0abe12bcb9ee57a5e9000b50559fd44d6acf1ddaf8787856020015187604051808560001916600019168152602001846000191660001916815260200183815260200182815260200194505050505060405180910390a150505050505050565b60006001600401600060016005016000866000191660001916815260200190815260200160002060009054906101000a900473ffffffffffffffffffffffffffffffffffffffff1673ffffffffffffffffffffffffffffffffffffffff1673ffffffffffffffffffffffffffffffffffffffff1681526020019081526020016000206002016000836000191660001916815260200190815260200160002054905092915050565b6000600160070154905090565b806001600201600060016003016000846000191660001916815260200190815260200160002060009054906101000a900473ffffffffffffffffffffffffffffffffffffffff1673ffffffffffffffffffffffffffffffffffffffff1673ffffffffffffffffffffffffffffffffffffffff16815260200190815260200160002060020160009054906101000a900460ff1615610bfd57600080fd5b81600160040160003373ffffffffffffffffffffffffffffffffffffffff1673ffffffffffffffffffffffffffffffffffffffff16815260200190815260200160002060010160009054906101000a900460ff161515610c5c57600080fd5b610c68600185856117a9565b507f79e13d5a840abcd5a75814518e1cf9a639120c7cb57ff7922a801e5f77236f258360405180826000191660001916815260200191505060405180910390a150505050565b60008060006001600401600060016005016000876000191660001916815260200190815260200160002060009054906101000a900473ffffffffffffffffffffffffffffffffffffffff1673ffffffffffffffffffffffffffffffffffffffff1673ffffffffffffffffffffffffffffffffffffffff168152602001908152602001600020905080600001549250828160010160009054906101000a900460ff169250829250925050915091565b7f50726550656e73696f6e2076312e302e3000000000000000000000000000000081565b6000809054906101000a900473ffffffffffffffffffffffffffffffffffffffff1681565b600080600060016000016000600180016000886000191660001916815260200190815260200160002060009054906101000a900473ffffffffffffffffffffffffffffffffffffffff1673ffffffffffffffffffffffffffffffffffffffff1673ffffffffffffffffffffffffffffffffffffffff168152602001908152602001600020600501600085815260200190815260200160002090508060000154925082816001015492508292509250509250929050565b6000806000610e7f60016006016000868152602001908152602001600020546105e1565b9250925092509193909250565b600060016000016000600180016000856000191660001916815260200190815260200160002060009054906101000a900473ffffffffffffffffffffffffffffffffffffffff1673ffffffffffffffffffffffffffffffffffffffff1673ffffffffffffffffffffffffffffffffffffffff168152602001908152602001600020600101549050919050565b6000610f26600184846116cf565b60200151905092915050565b8060016000016000600180016000846000191660001916815260200190815260200160002060009054906101000a900473ffffffffffffffffffffffffffffffffffffffff1673ffffffffffffffffffffffffffffffffffffffff1673ffffffffffffffffffffffffffffffffffffffff16815260200190815260200160002060040160009054906101000a900460ff1615610fcd57600080fd5b81600160040160003373ffffffffffffffffffffffffffffffffffffffff1673ffffffffffffffffffffffffffffffffffffffff16815260200190815260200160002060010160009054906101000a900460ff16151561102c57600080fd5b61103860018585611971565b507f1fc33eba80116a8d99274580ad8063ae03365c9e6275f7068d2647271ed9d91e8360405180826000191660001916815260200191505060405180910390a150505050565b600060016000016000600180016000856000191660001916815260200190815260200160002060009054906101000a900473ffffffffffffffffffffffffffffffffffffffff1673ffffffffffffffffffffffffffffffffffffffff1673ffffffffffffffffffffffffffffffffffffffff168152602001908152602001600020600201549050919050565b8260016000016000600180016000846000191660001916815260200190815260200160002060009054906101000a900473ffffffffffffffffffffffffffffffffffffffff1673ffffffffffffffffffffffffffffffffffffffff1673ffffffffffffffffffffffffffffffffffffffff16815260200190815260200160002060040160009054906101000a900460ff1615156111a657600080fd5b826001600201600060016003016000846000191660001916815260200190815260200160002060009054906101000a900473ffffffffffffffffffffffffffffffffffffffff1673ffffffffffffffffffffffffffffffffffffffff1673ffffffffffffffffffffffffffffffffffffffff16815260200190815260200160002060020160009054906101000a900460ff16151561124357600080fd5b84838060016000016000600180016000866000191660001916815260200190815260200160002060009054906101000a900473ffffffffffffffffffffffffffffffffffffffff1673ffffffffffffffffffffffffffffffffffffffff1673ffffffffffffffffffffffffffffffffffffffff1681526020019081526020016000206001015410156112d457600080fd5b6112e16001888888611b3a565b507f720ea7f2b7ca9b1c6919ec02560ec4604766d10380fd72e87bb0b3d3a45c441f8787876040518084600019166000191681526020018360001916600019168152602001828152602001935050505060405180910390a150505050505050565b61134a612057565b604080519081016040528083600019168152602001600115158152508460040160008573ffffffffffffffffffffffffffffffffffffffff1673ffffffffffffffffffffffffffffffffffffffff1681526020019081526020016000206000820151816000019060001916905560208201518160010160006101000a81548160ff02191690831515021790555090505082846005016000846000191660001916815260200190815260200160002060006101000a81548173ffffffffffffffffffffffffffffffffffffffff021916908373ffffffffffffffffffffffffffffffffffffffff1602179055508360040160008473ffffffffffffffffffffffffffffffffffffffff1673ffffffffffffffffffffffffffffffffffffffff1681526020019081526020016000206040805190810160405290816000820154600019166000191681526020016001820160009054906101000a900460ff16151515158152505090509392505050565b6000806000806000808960000160008b60010160008b6000191660001916815260200190815260200160002060009054906101000a900473ffffffffffffffffffffffffffffffffffffffff1673ffffffffffffffffffffffffffffffffffffffff1673ffffffffffffffffffffffffffffffffffffffff168152602001908152602001600020945061154c8a898b611e21565b9350600092506000841415156115995784600501600085815260200190815260200160002060010154925086856005016000868152602001908152602001600020600101819055506115a7565b6115a58a898b8a611f03565b505b600a8388038115156115b557fe5b0491508185600101600082825401925050819055508960040160008b60050160008c6000191660001916815260200190815260200160002060009054906101000a900473ffffffffffffffffffffffffffffffffffffffff1673ffffffffffffffffffffffffffffffffffffffff1673ffffffffffffffffffffffffffffffffffffffff168152602001908152602001600020905060008160020160008a600019166000191681526020019081526020016000205414156116945760008160020160008a60001916600019168152602001908152602001600020819055505b818160020160008a60001916600019168152602001908152602001600020600082825401925050819055508195505050505050949350505050565b6116d761203a565b60006116e4858585611e21565b9050846000016000866001016000876000191660001916815260200190815260200160002060009054906101000a900473ffffffffffffffffffffffffffffffffffffffff1673ffffffffffffffffffffffffffffffffffffffff1673ffffffffffffffffffffffffffffffffffffffff16815260200190815260200160002060050160008281526020019081526020016000206040805190810160405290816000820154600019166000191681526020016001820154815250509150509392505050565b6117b1612076565b6060604051908101604052808360001916815260200160008152602001600115158152508460020160008573ffffffffffffffffffffffffffffffffffffffff1673ffffffffffffffffffffffffffffffffffffffff168152602001908152602001600020600082015181600001906000191690556020820151816001015560408201518160020160006101000a81548160ff02191690831515021790555090505082846003016000846000191660001916815260200190815260200160002060006101000a81548173ffffffffffffffffffffffffffffffffffffffff021916908373ffffffffffffffffffffffffffffffffffffffff16021790555060018460070160008282540192505081905550818460060160008660070154815260200190815260200160002081600019169055508360020160008473ffffffffffffffffffffffffffffffffffffffff1673ffffffffffffffffffffffffffffffffffffffff16815260200190815260200160002060606040519081016040529081600082015460001916600019168152602001600182015481526020016002820160009054906101000a900460ff16151515158152505090509392505050565b61197961209d565b60a06040519081016040528083600019168152602001600081526020016000815260200160008152602001600115158152508460000160008573ffffffffffffffffffffffffffffffffffffffff1673ffffffffffffffffffffffffffffffffffffffff1681526020019081526020016000206000820151816000019060001916905560208201518160010155604082015181600201556060820151816003015560808201518160040160006101000a81548160ff02191690831515021790555090505082846001016000846000191660001916815260200190815260200160002060006101000a81548173ffffffffffffffffffffffffffffffffffffffff021916908373ffffffffffffffffffffffffffffffffffffffff1602179055508360000160008473ffffffffffffffffffffffffffffffffffffffff1673ffffffffffffffffffffffffffffffffffffffff16815260200190815260200160002060a060405190810160405290816000820154600019166000191681526020016001820154815260200160028201548152602001600382015481526020016004820160009054906101000a900460ff16151515158152505090509392505050565b611b426120d2565b600080866002016000886003016000886000191660001916815260200190815260200160002060009054906101000a900473ffffffffffffffffffffffffffffffffffffffff1673ffffffffffffffffffffffffffffffffffffffff1673ffffffffffffffffffffffffffffffffffffffff1681526020019081526020016000209150866000016000886001016000896000191660001916815260200190815260200160002060009054906101000a900473ffffffffffffffffffffffffffffffffffffffff1673ffffffffffffffffffffffffffffffffffffffff1673ffffffffffffffffffffffffffffffffffffffff168152602001908152602001600020905060018260010160008282540192505081905550606060405190810160405280876000191681526020018581526020016000815250826003016000846001015481526020019081526020016000206000820151816000019060001916905560208201518160010155604082015181600201559050506001816003016000828254019250508190555060a0604051908101604052808660001916815260200183600101548152602001858152602001600015158152602001600015158152508160060160008360030154815260200190815260200160002060008201518160000190600019169055602082015181600101556040820151816002015560608201518160030160006101000a81548160ff02191690831515021790555060808201518160030160016101000a81548160ff0219169083151502179055509050508381600101600082825403925050819055508060060160008260030154815260200190815260200160002060a0604051908101604052908160008201546000191660001916815260200160018201548152602001600282015481526020016003820160009054906101000a900460ff161515151581526020016003820160019054906101000a900460ff16151515158152505092505050949350505050565b6000806000856000016000876001016000886000191660001916815260200190815260200160002060009054906101000a900473ffffffffffffffffffffffffffffffffffffffff1673ffffffffffffffffffffffffffffffffffffffff1673ffffffffffffffffffffffffffffffffffffffff1681526020019081526020016000209150600190505b816002015481111515611ef557836000191682600501600083815260200190815260200160002060000154600019161415611ee857809250611efa565b8080600101915050611eab565b600092505b50509392505050565b611f0b61203a565b6000856000016000876001016000886000191660001916815260200190815260200160002060009054906101000a900473ffffffffffffffffffffffffffffffffffffffff1673ffffffffffffffffffffffffffffffffffffffff1673ffffffffffffffffffffffffffffffffffffffff1681526020019081526020016000209050600181600201600082825401925050819055506040805190810160405280856000191681526020018481525081600501600083600201548152602001908152602001600020600082015181600001906000191690556020820151816001015590505080600501600082600201548152602001908152602001600020604080519081016040529081600082015460001916600019168152602001600182015481525050915050949350505050565b604080519081016040528060008019168152602001600081525090565b6040805190810160405280600080191681526020016000151581525090565b60606040519081016040528060008019168152602001600081526020016000151581525090565b60a060405190810160405280600080191681526020016000815260200160008152602001600081526020016000151581525090565b60a06040519081016040528060008019168152602001600081526020016000815260200160001515815260200160001515815250905600a165627a7a7230582009c80417c7089a26ea51a521b75c6d9ba1263f910bcb2e8233ebf794e8202aab0029",
  "source": "pragma solidity ^0.4.18;\n\nimport \"./PrePensionBase.sol\";\n\ncontract PrePension is PrePensionBase {\n\n  bytes32 public constant version = \"PrePension v1.0.0\";\n\n  function PrePension () public {\n\n  }\n\n  event participantAdded (bytes32 id);\n\n  function addParticipant (address _participant, bytes32 _id) public participantNotExist(_id) allowedToAddParticipant(_id) {\n      PrePensionLib.addParticipant(data, _participant, _id);\n      emit participantAdded(_id);\n  }\n\n  function getParticipant (bytes32 _id) public view returns (\n    bytes32 id,\n    uint balance,\n    bool active\n  )  {\n\n    PrePensionLib.Participant storage participant = data.participants[data.participantMapping[_id]];\n\n    return (\n      id = participant.id,\n      balance = participant.balance,\n      active = participant.active\n    );\n  }\n\n  event pensionAdded (bytes32 id);\n\n  function addPension (address _pension, bytes32 _id) public pensionNotExist(_id) {\n    PrePensionLib.addPension(data, _pension, _id);\n    emit participantAdded(_id);\n  }\n\n  function getPension (bytes32 _id) public view returns (\n    bytes32 id,\n    bool active\n  )  {\n\n    PrePensionLib.Pension storage pension = data.pensions[data.pensionMapping[_id]];\n\n    return (\n      id = pension.id,\n      active = pension.active\n    );\n  }\n\n  event supplierAdded (bytes32 id);\n\n  function addSupplier (address _supplier, bytes32 _id) public supplierNotExist(_id) supplierIsValid(_id) {\n    PrePensionLib.addSupplier(data, _supplier, _id);\n    emit supplierAdded(_id);\n  }\n\n  function getSupplier (bytes32 _id) public view returns (\n    bytes32 id,\n    uint noOfInvoices,\n    bool active\n  )  {\n\n    PrePensionLib.Supplier storage supplier = data.suppliers[data.supplierMapping[_id]];\n\n    return (\n      id = supplier.id,\n      noOfInvoices = supplier.noOfInvoices,\n      active = supplier.active\n    );\n  }\n\n  function getNumberOfSuppliers() public view returns (uint) {\n    return data.noOfSuppliers;\n  }\n\n  function getSupplierById(uint _id) public view returns (\n    bytes32 id,\n    uint noOfInvoices,\n    bool active\n    ) {\n      return getSupplier(data.supplierIterator[_id]);\n    }\n\n  event minted (bytes32 pension, bytes32 participant, uint balance, uint coins);\n\n  function mint (bytes32 _pension, bytes32 _participant, uint _balance) public pensionExist(_pension) participantExist(_participant) {\n    uint coins = PrePensionLib.mint(data, _pension, _participant, _balance);\n    PrePensionLib.PensionBalance memory pensionBalance = PrePensionLib.getPensionBalance(data, _participant, _pension);\n    emit minted(_pension, _participant, pensionBalance.balance, coins);\n  }\n\n  function getMintedForParticipant(bytes32 _pension, bytes32 _participant) public view returns (uint) {\n    return data.pensions[data.pensionMapping[_pension]].minted[_participant];\n  }\n\n  function getPensionBalance(bytes32 _participant, bytes32 _pension) public view returns (uint) {\n    return PrePensionLib.getPensionBalance(data, _participant, _pension).balance;\n  }\n\n  function getParticipantBalance(bytes32 _participant) public view returns (uint) {\n    return data.participants[data.participantMapping[_participant]].balance;\n  }\n\n  function getNumberOfPensions(bytes32 _participant) public view returns (uint) {\n    return data.participants[data.participantMapping[_participant]].noOfPensions;\n  }\n\n  function getParticipantPension (bytes32 _participant, uint id) public view returns (bytes32 pension, uint balance) {\n    PrePensionLib.PensionBalance storage pensionBalance = data.participants[data.participantMapping[_participant]].pensionBalances[id];\n    return (\n      pension = pensionBalance.pension,\n      balance = pensionBalance.balance\n    );\n  }\n\n  event purchased (bytes32 _participant, bytes32 _supplier, uint amount);\n\n  function purchase (bytes32 _participant, bytes32 _supplier, uint _amount) public\n            participantExist(_participant)\n            supplierExist(_supplier)\n            sufficientBalance (_participant, _amount) {\n\n      PrePensionLib.purchase(data, _participant, _supplier, _amount);\n      emit purchased(_participant, _supplier, _amount);\n  }\n\n}\n",
  "sourcePath": "/Volumes/Data/programmeren/blockchainhackathon/p-launch/contracts/PrePension.sol",
  "compiler": {
    "name": "solc",
    "version": "0.4.21+commit.dfe3193c.Emscripten.clang"
  },
  "schemaVersion": "2.0.0",
  "updatedAt": "2018-04-07T22:52:39.852Z"
}